:020000040000fa
:080000000001040000000000f3
:020000040000fa
:04000800dc01000017
:020000040000fa
:04000c00dc01000013
:020000040000fa
:04001000dc0100000f
:020000040000fa
:04001400dc0100000b
:020000040000fa
:04001800dc01000007
:020000040000fa
:04001c00dc01000003
:020000040000fa
:04002000dc010000ff
:020000040000fa
:04002400dc010000fb
:020000040000fa
:04002800dc010000f7
:020000040000fa
:04002c00dc010000f3
:020000040000fa
:04003000dc010000ef
:020000040000fa
:04003400dc010000eb
:020000040000fa
:04003800dc010000e7
:020000040000fa
:04003c00dc010000e3
:020000040000fa
:04004000dc010000df
:020000040000fa
:04004400dc010000db
:020000040000fa
:04004800dc010000d7
:020000040000fa
:04004c00dc010000d3
:020000040000fa
:04005000dc010000cf
:020000040000fa
:04005400dc010000cb
:020000040000fa
:04005800dc010000c7
:020000040000fa
:04005c00dc010000c3
:020000040000fa
:04006000dc010000bf
:020000040000fa
:04006400dc010000bb
:020000040000fa
:04006800dc010000b7
:020000040000fa
:04006c00dc010000b3
:020000040000fa
:04007000dc010000af
:020000040000fa
:04007400dc010000ab
:020000040000fa
:04007800dc010000a7
:020000040000fa
:04007c00dc010000a3
:020000040000fa
:04008000dc0100009f
:020000040000fa
:04008400dc0100009b
:020000040000fa
:04008800dc01000097
:020000040000fa
:04008c00dc01000093
:020000040000fa
:04009000dc0100008f
:020000040000fa
:04009400dc0100008b
:020000040000fa
:04009800dc01000087
:020000040000fa
:04009c00dc01000083
:020000040000fa
:0400a000dc0100007f
:020000040000fa
:0400a400dc0100007b
:020000040000fa
:0400a800dc01000077
:020000040000fa
:0400ac00dc01000073
:020000040000fa
:0400b000dc0100006f
:020000040000fa
:0400b400dc0100006b
:020000040000fa
:0400b800dc01000067
:020000040000fa
:0400bc00dc01000063
:020000040000fa
:0400c000dc0100005f
:020000040000fa
:0400c400dc0100005b
:020000040000fa
:0400c800dc01000057
:020000040000fa
:0400cc00dc01000053
:020000040000fa
:0400d000dc0100004f
:020000040000fa
:0400d400dc0100004b
:020000040000fa
:0400d800dc01000047
:020000040000fa
:04010800dc01000016
:020000040000fa
:04010c00dc01000012
:020000040000fa
:04011000dc0100000e
:020000040000fa
:04011400dc0100000a
:020000040000fa
:04011800dc01000006
:020000040000fa
:04011c00dc01000002
:020000040000fa
:04012000dc010000fe
:020000040000fa
:04012400dc010000fa
:020000040000fa
:04012800dc010000f6
:020000040000fa
:04012c00dc010000f2
:020000040000fa
:04013000dc010000ee
:020000040000fa
:04013400dc010000ea
:020000040000fa
:04013800dc010000e6
:020000040000fa
:04013c00dc010000e2
:020000040000fa
:04014000dc010000de
:020000040000fa
:04014400dc010000da
:020000040000fa
:04014800dc010000d6
:020000040000fa
:04014c00dc010000d2
:020000040000fa
:04015000dc010000ce
:020000040000fa
:04015400dc010000ca
:020000040000fa
:04015800dc010000c6
:020000040000fa
:04015c00dc010000c2
:020000040000fa
:04016000dc010000be
:020000040000fa
:04016400dc010000ba
:020000040000fa
:04016800dc010000b6
:020000040000fa
:04016c00dc010000b2
:020000040000fa
:04017000dc010000ae
:020000040000fa
:04017400dc010000aa
:020000040000fa
:04017800dc010000a6
:020000040000fa
:04017c00dc010000a2
:020000040000fa
:04018000dc0100009e
:020000040000fa
:04018400dc0100009a
:020000040000fa
:04018800dc01000096
:020000040000fa
:04018c00dc01000092
:020000040000fa
:04019000dc0100008e
:020000040000fa
:04019400dc0100008a
:020000040000fa
:04019800dc01000086
:020000040000fa
:04019c00dc01000082
:020000040000fa
:0401a000dc0100007e
:020000040000fa
:0401a400dc0100007a
:020000040000fa
:0401a800dc01000076
:020000040000fa
:0401ac00dc01000072
:020000040000fa
:0401b000dc0100006e
:020000040000fa
:0401b400dc0100006a
:020000040000fa
:0401b800dc01000066
:020000040000fa
:0401bc00dc01000062
:020000040000fa
:0401c000dc0100005e
:020000040000fa
:0401c400dc0100005a
:020000040000fa
:0401c800dc01000056
:020000040000fa
:0401cc00dc01000052
:020000040000fa
:0401d000dc0100004e
:020000040000fa
:0401d400dc0100004a
:020000040000fa
:0401d800dc01000046
:020000040000fa
:100200008f9020000e7f22000e0188000000000069
:10021000000020000000e000020032000001200089
:100220002002880014000700da0007000000e00048
:1002300003003a0060852100010020000200370021
:100240000000200001002000810f7000010032003a
:1002500014000700000020000000e000020032004f
:100260000000020000000000dc1902000000000095
:100270000040da000000fe004440a9008002200097
:100280000000e0000300320000002000a001880010
:100290004440a800000006008a1f78008b1f7800e9
:1002a0000000060091018800800478000000eb0047
:1002b0001a003700e284440032a0b4009905ba0065
:1002c000e284440032a0b4009906ba00e2844400fb
:1002d00032a0b4000006eb00476fde00fd07b2005d
:1002e000636ce10003003a00ebff07000000eb0045
:1002f0000a003700606ce10004003a00005deb008a
:100300008b05e900fdff3e00040037006168e10055
:10031000010032000086eb000b00070019c7ba008d
:100320001905ba000e04e00003003a000a00e000dc
:10033000e0ff3a0000000600fe07b2009e018800c0
:100340008a047800f5ff3700395dba008b05e900b3
:100350000c003200295dba008b05e900080032006c
:100360000c00e00003003a00e284440032a0b40034
:10037000f5ff370019ddba008b05e900faff3a00f6
:100380008904e800e184440032a0b40000000600c3
:10039000da02040000000000f40204000000000083
:1003a00022030400000000003a0f040000000000d7
:1003b00000000400000000000040da000000fe0021
:1003c0000a00fa0011002000b1bf9f00c0bf9f00cb
:1003d0006a8057005c0707004fb897000080fa005a
:1003e000000006000a00fa00e20f500034003e0050
:1003f00020488000e10f500003003200e20f50005f
:1004000011003a000c003700c32020000300e00078
:1004100001003a000040da000c02e2000200350060
:100420001422ef000de2a8000f42ab000d003a00cd
:100430000f42a8000b003700632120000300e000fa
:1004400001003a000040da001602e2000200350026
:100450001e22ef0017e2a8001942ab0001003a008b
:100460001942a800820178000b0037003102fb001e
:10047000e10f500004003a000f22ab00feff3a00eb
:1004800084108800030037001922ab00feff3a00f9
:10049000d41088008301e9000300e000f3ff3a0074
:1004a000e10f500003003a000f02ab00feff3200e4
:1004b0000b0037001902ab00feff320008003700c6
:1004c00033002000b3bf9f00c0bf9f00d1bf9f007b
:1004d000e2bf9f006a8057001d0707006fb99700b1
:1004e000020078000080fa00000006000a00fa000e
:1004f00051002000b1bf9f00c0bf9f006a8057001d
:10050000150707005fb897000080fa00000006009a
:10051000889fbe0080047800304880000000e00022
:1005200004003a000e0007000084eb000000e00029
:1005300008003500384880000900e000050032005e
:1005400009004400060007000000e00001003d0033
:100550000084eb00080078004f04be000000060095
:10056000800078000100e00003003a000000200055
:1005700030488800000005000080eb0002002000e9
:10058000828f500002003e00314888000000eb00de
:10059000000006000000050080017800020037001e
:1005a000b15978000201e9000200e000fcff3a00c6
:1005b00000000600889fbe00800478000203be0091
:1005c000010478006149b800898fd2008381d2008c
:1005d000080278000600be00e1060700088044001b
:1005e0004f04be0000000600881f78000204780057
:1005f00008017800e8ff0700080040004f04780079
:10060000000006000000fa00881f7800000478004f
:100610006a825700bfb9970008017800a12d200019
:10062000402f2000160007000000e0000200350007
:100630008040eb00017478004f0478000080fa00dd
:1006400000000600889fbe00000478000203be0080
:1006500081047800080278008901780012002000e7
:100660000600be0076040700890f5000010032002a
:100670000004eb00080078004f04be0000000600f4
:100680006800fa00889fbe008a9fbe008004780040
:100690000104780082057800030578008400780062
:1006a00000f92f000f00400063040700d98f9f005e
:1006b000fb8f9f000000eb00a09f9f00e88f9f0032
:1006c0009a84fb000904fb008904ea00cf4cde0099
:1006d00050022000800f54000d003200e18f5400c2
:1006e0000b003a00090178008a0078007f889700a3
:1006f000df89970003000100f08f9f000000e000f9
:10070000950032002f9897000000e800a09f9f00fe
:100710000905450050022000800f540004003200fb
:100720000800e000e6ff3a002f9897008b003700a2
:100730000000eb00809f9f00f0979f00e0979f00d4
:10074000d0979f00c0979f00b0979f000700370089
:10075000418f20000100500000004000818e2000e9
:1007600061007800cf98970001007000c09f9f0043
:100770000a04780008057800ba4478008900fb0074
:10078000408f20001c0307000000e000f0ff3a004b
:10079000a1c2b30081cf54000e003a008f889700a9
:1007a0000180e900808f9f0010007800b09f9f00bb
:1007b0000000e00005003d000000ea00b09f9f003f
:1007c0004f9897000020a000c09f9f000804e800f9
:1007d00010003700b09f9f00880078000000eb00f9
:1007e00005003700f3ff2700830f5000020032009e
:1007f0006a02b90004004100010478008800780012
:100800003101fb000203b100e90f5100f5ff360092
:10081000b09f9f00e0c2b300984f1000020032006a
:100820000080eb0019003700a0c2b300d84f1000c1
:1008300007003a008f8897000180e900808f9f00b1
:1008400010007800909f9f000804e8001000370017
:100850000000eb00909f9f008800780005003700a3
:10086000f3ff2700830f5000020032006a02b90034
:100870000400410001047800880078003101fb0089
:100880000203b100e90f5100f5ff3600909f9f0071
:10089000984478008900fb00008e2000d6020700f3
:1008a0000000e000020032000804e8000100370008
:1008b0008044eb00a97f9f0080c6b30080cf540026
:1008c00006003a0098cf140010003a00664050002d
:1008d000a07f9f000804e8000c003700c0c6b300ea
:1008e00080cf540009003a0098cf140007003a0066
:1008f00067404000d84f100002003a006e405000a0
:100900000100370010c7b300a07f9f001801fb0053
:10091000c3fb2f008f81410001f92f008f80400021
:1009200020f92f000f004000150007000000e00034
:1009300009003a00c1fb2f008f80400020f92f00f2
:100940000f004000e20207000000e0000200350056
:100950000805e8005aff37000080eb004f05be0095
:100960004f04be000080fa00000006000302780079
:1009700082017800010178002132200040ff370019
:10098000889fbe008a1f78000004780082447800a7
:100990000305780070c4b30080cf54000a003c0007
:1009a00000c0e90080cf54000f003d0050c2b300ea
:1009b00080cf5400350032007c40400080cf54008e
:1009c00035003a000800370010c6b30080cf54004d
:1009d0000500320030003500b0c9b30000c044004b
:1009e000e24f50002c003e0008699000c0c4b300e4
:1009f000804f510006003a00110178006800510054
:100a0000800878005001be004000be00050037009d
:100a10001101780064005100800878001000be00c9
:100a2000bf060700009cbe000294be00b800900004
:100a3000280890000100e00002003d00d1c2b30090
:100a400008003700b81090000118a300020032001f
:100a5000b1c2b300030037000108a3000400320054
:100a600001c2b300017578000000e800200c980076
:100a700028089000000545007a0498008900fb00d2
:100a800008007800100007000b00370028089000cd
:100a90000975780006003700280890000005450019
:100aa0000904e00001003a0059c2b300094d780082
:100ab0000000e800200c98000000eb004f057800d3
:100ac0004f04be00000006002f04b000889fbe0047
:100ad0008a9fbe008c9fbe008e1f780000077800a2
:100ae00081f79f003e04be002e05be000e10900050
:100af0000000e00002003d006000200000179800a8
:100b00008e00780020fb2f000f00400046020700f7
:100b1000e20f50000a003a0030002000400f980019
:100b2000b1c9b3000ff0970081404000c088200099
:100b3000e1cf50000d003e00808820000b00370000
:100b40000000e0000f00340030002000400f98004b
:100b5000b1c9b3000ff197008140410040892000e6
:100b6000e1cf500001003e0000892000fe0090000f
:100b7000b0487800b0687800104078009040980045
:100b8000f30037000000e00005003a0022fb2f00d0
:100b90000f014100001978008001eb00e7003700e9
:100ba0006022b8006033b8000800be000a01be0031
:100bb000a30507000000e00001003d000bf0a200cb
:100bc000705927009f9897000088b900026a280092
:100bd00013002000fe050700640650009c9f9f0044
:100be00013003b0063061600c0ff2f0000066600de
:100bf0008c01ea00939f9f008d8920000800be00b1
:100c00000a01be00070037000c08a30003003200f1
:100c10003d02be002d03be00a50607000c86d100d4
:100c2000e88646000c00e000f7ff3c0018003700a3
:100c30000c00e00018003200c0ff2f000006660024
:100c40009c9f9f008d8920006000b800020020005a
:100c500003ff2300070037000c08a3000300320045
:100c60003d02be002d03be00910607000c86d10098
:100c7000e88646000c00e000f7ff3c000002be00e2
:100c80000203be000800be000a01be007605070090
:100c90000004be000205be008e10900060c6b300c6
:100ca0000ff29700804f52000400320060002000d5
:100cb00062c4b300824f520002003a009f9a97002c
:100cc0006a80420081004000f1b79f000103780074
:100cd000f30f53000200340037012000f7b79f00e4
:100ce00000c3b300c0779f0056fb2f000f034300e3
:100cf0000e007800a0b79f00060778003d0037007f
:100d00000800be000a01be00240607000006be005f
:100d10007fb1970068015100f2b79f004240a900df
:100d20000c003400490607000002be000203be00aa
:100d30000800be000a01be00d30607006022b8000a
:100d400046782d0077192400590607000004be00dc
:100d50000205be00e80047008e0020000802be0029
:100d60000a03be00b4b79f00c5b79f00d6b79f0067
:100d7000e7b79f000c01be00010478000c003700ab
:100d8000a400200005002000c0fd2f000f0040003f
:100d9000840107006fa89700ffa897000fb1970084
:100da0009fb1970005c3b300056441000001be0078
:100db000e00f5100e08f5900030034000e07e900f6
:100dc000e10f4700eeff3a00880078003fb497003b
:100dd000cfb497005fb59700efb5970002003700da
:100de00000c3b300806078000e07e900fcff3b0001
:100df000688740007fb397000600e00007003400da
:100e00006022b8006033b8000800be000a01be00ce
:100e1000100507000000e000b9ff3c000e03780059
:100e20002fb7970051fb2f008f8040000103530024
:100e30009f9b970067804300909f9f0002003700b0
:100e40000603e9000000e900010178008200780053
:100e500003c3b300b1cf1100f9ff3200909f9f0090
:100e60008e11900061c6b3000ff29700814f5200bf
:100e70000300320061c4b300814f520002003a0007
:100e80000000e8000a0037001000200051c6b3003f
:100e90008ff2970081cf52000500320005407800a4
:100ea00050c4b2000080fb000000e9004f00de00eb
:100eb00083014000868f51000100340086017800d4
:100ec0000300e0001d00350000c3b300868f510011
:100ed00006003d0062c279006940400041c3b30092
:100ee000814f520001003c00694050008300e9003e
:100ef0008100410001003700840178000302e9000d
:100f000001037800a142780080cf5200faff32003e
:100f100091c3b300814f500001003a00054be80037
:100f20000400e00005003d000201e9008301e80043
:100f30001f9b97000603e800969f9f008ff3970082
:100f40008700fb001f9a97000e007800060007003c
:100f50004f0778004f06be004f05be004f04be008d
:100f60002f04b10000000600f0874700889fbe00f4
:100f70008a9fbe008c9fbe008e1f78000004780000
:100f8000814478000205be00040678000b00e000f2
:100f900002003c001b002000ea8f200060c6b30066
:100fa00080cf54000e00320060c4b30080cf5400e4
:100fb0000b00320070c6b30080cf54000300320033
:100fc00070c4b30080cf540081003a00e40f4600a3
:100fd0007f00350008109000800f56007c003d0017
:100fe0000c06e80060c6b30080cf54001000320049
:100ff00060c4b30080cf54000d0032003810900060
:101000000038a30004003a0008109000808f5500bb
:1010100001003d000b149800081090000c005000d7
:101020000014980002003b000000eb000014980040
:1010300048089000f80090000c00e00026003c00fa
:1010400002c3b300827078000000e800400c9800f2
:10105000881090000100e00003003c00b8109000f0
:101060000138a30005003200f8009000e2c2b3008e
:10107000827078000000e800400c98000810900092
:101080008c00ea00810f500001003d000006ea00dc
:101090008c00ea00510c9800000646000c149800e1
:1010a0008b0f5600010034000b0678006c0c980082
:1010b000f800900048089000008040000c01780083
:1010c0008a00780034fd0700081090000c065000dc
:1010d0007c0c9800900037008c8f550018003d0064
:1010e000008040000b0178008a0078002afd07008c
:1010f0004808900000804500400c98008b05560081
:101100005b0c9800881090000100e00003003c0098
:10111000b81090000138a30006003200f8009000db
:10112000e2c2b30082707800680890000000e80016
:10113000600c980008109000700c98007600370042
:10114000008040000c0178008a00780012fd070042
:101150004808900000004600400c98008c8555001f
:10116000881090000100e00003003c00b8109000df
:101170000138a30005003200f8009000e2c2b3007d
:10118000827078000000e800400c98000810900081
:10119000808f55000100340080057800f800900031
:1011a00048089000008040008c0045000b0178004a
:1011b000f9fc0700480890000b004000400c980024
:1011c000081090008b0550005b0c9800520037000f
:1011d00048089000f80090009a7078000000e8003d
:1011e000400c9800881090000100e00003003c00d3
:1011f000b81090000138a30005003200f8009000fc
:10120000e2c2b300827078000000e800400c980051
:10121000081090000000e000100034008b05e90089
:10122000808f55000100340080057800f8009000a0
:1012300048089000008040008a00e8000b01780018
:10124000d5fc0700480890000b004000400c9800b7
:10125000081090008b0550005b0c9800f80090007f
:101260004808900000804000095878000007e80016
:101270000c00e00004003500b1c2b3000148780062
:101280008e04780004003700d1c2b3000148780012
:101290008e0478000c06ea007d8557008006eb007e
:1012a00009003700a20020008c00780072805700ef
:1012b000310007007fb097008fb89700016d78006c
:1012c000000678008d06e8000c00e000f5ff3c0009
:1012d0000d00e00009003a008e04780000c3b3005e
:1012e000805c7800050037008d06e900fc8057001f
:1012f00061c07e0002c3b300825c40000d00e000cc
:10130000f9ff3c00f8009000480890000080400081
:1013100080845400690c98003810900074006000bc
:10132000f00f50000e003a00c80890002808900006
:1013300000804000d808900001004000e8089000bc
:1013400001004000f808900001004000a810900043
:10135000810f500002003d0000805000300c9800ca
:101360004f0778004f06be004f05be004f04be0079
:101370000f01b10000000600800278000103780030
:10138000110009000203d80080017800830a780068
:101390000299b900020153009202980005007800fa
:1013a00000000600881f78008a9fbe008c9fbe0048
:1013b000000478000205be000406be000401be0061
:1013c0000a00be0002040700008cbe000c01be0033
:1013d0003f0507000005550081855d002a0498003f
:1013e0003b049800080078004f06be004f05be0081
:1013f0004f04780000000600020037000304e000fc
:10140000060032000001780002007800b041780048
:1014100081cf5100f9ff3a00010037000001eb00d5
:101420000200780000000600889fbe0000047800db
:10143000e68440001900d0004500de00f27f200065
:10144000820f500010003a00000ceb009904780065
:101450006f816400200020001b003a0021019000f1
:101460000200e00018003a00110190000200e000c4
:1014700015003a00100020001100e00012003200b8
:1014800020002000100037000000e00004003a00b7
:1014900001007800910107000000e00008003c0016
:1014a000f20028001901610001fe2300810c710087
:1014b00021c02f00010c40000080eb00020037002b
:1014c000000ceb000000eb004f04be000000060023
:1014d0000400fa00889fbe008a9fbe008c1f78001f
:1014e0000004780001067800a814900028089000f5
:1014f000808454003808900080845400480890008c
:10150000808454005808900080845400680890003b
:1015100080845400780890008084540000022200e7
:1015200090bf9f0000032300a0bf9f0038109000d1
:101530000028a30015003a000900e0001300340061
:10154000090578008a057800e20f55000100360091
:101550002b002000c80190000b017800ee8057009e
:101560006800900003000100600498000000e000a3
:10157000aa003200181090000b00400010149800d0
:101580000b0555004240a900eeff3c0028099000e1
:101590000200e0000c003400c80190008c007800cc
:1015a0006800900003000100600498008080eb0058
:1015b0000000e0009a003200981090002808900087
:1015c0000080400010149800380d90000a00e000e0
:1015d000110034008a057800e20f55000100360042
:1015e0002b002000c80190000b017800ec80570010
:1015f0006800900003000100600498000000e00013
:1016000086003200181090000b0040001014980063
:101610000b055500edff370008699000c8089000e1
:1016200050c6b300804f510008003a000100e000ae
:1016300015003400580290000809900098099000a5
:101640006800900004000100070037000100e0007e
:101650000d003400c801900001017800f8009000ee
:101660006800900003000100600498008080eb0097
:101670000000e0006a0032009810900048089000d6
:101680000080400010149800580d90000a00e000ff
:10169000110034008a057800e20f55000100360081
:1016a0002b002000c80190000b017800ec8057004f
:1016b0006800900003000100600498000000e00052
:1016c00056003200181090000b00400010149800d3
:1016d0000b055500edff3700086990006808900081
:1016e00051c6b300814f51000d003a000000e000e8
:1016f0001c00340078019000c808900001014100ee
:101700006111b800828fd2008381d200580290000c
:101710008000780068009000040001000900370094
:101720000000e0000f00340078019000c80890002d
:1017300081004100c801900000017800680090001d
:1017400003000100600498008080eb000000e000ce
:10175000330032009810900068089000008040002c
:1017600010149800780d90000a00e0001100340079
:101770008a057800e20f5500010036002b0020009a
:10178000c80190000b017800ec80570068009000c1
:1017900003000100600498000000e0001f00320018
:1017a000181090000b004000101498000b05550015
:1017b000edff3700381090008000eb000028a300f8
:1017c000170032000900e000150034000905780018
:1017d000e28f5400010036002a002000c80190006a
:1017e0000a017800ee8057006800900003000100b5
:1017f000600498000000e00008003200181090001b
:101800000a004000101498008a8454004240a90045
:10181000eeff3c008000eb00010037008080eb0011
:10182000010078004f0678004f05be004f04be004f
:101830000080fa00000006000108780000000600a1
:10184000e6874700889fbe008a9fbe008c9fbe002f
:101850008e1f780082bf9f0004047800029ab900ae
:10186000f4b79f000400e000590032000fb9970060
:101870000200e000570032000006be0004077800b6
:10188000c800900068009000808f5000040039006c
:1018900008007800dd0007000000e0003b00350094
:1018a00000402000180060000a0032008e0178001d
:1018b000a20020000c00be00460207000005be008a
:1018c00000807500070032008c0455008904e80090
:1018d000050037008e0478000a0020000b0020006d
:1018e000010037008e0478004801900068009000e5
:1018f00002005000890f500003003100800478007e
:101900000a0020000b0020006111b800828fd20075
:101910008381d200090278000c00be00100207008b
:101920000907570048009000090040004004980053
:101930000a85750004003200080078002c000700ba
:101940000000e00011003a000e00e0000f0032003d
:101950006148b800808fd2008180d20000007800fa
:1019600000f0a1008c01d0000001d00002864100ef
:101970004220a80081864e004200a9004220ae000d
:101980004200a8000c86d300bdff37000080200075
:101990001800600002003200080078001400070000
:1019a00000c020001800600002003200c801900052
:1019b000630498007fb097000e0750000fb997009e
:1019c000110009000287d80080017800010037006b
:1019d0008001eb00030078004f0778004f06be003f
:1019e0004f05be004f04be006f00b10000000600ae
:1019f000889fbe00000478000800e0000f003a0055
:101a00008004eb00090478008800d0008087200063
:101a1000610078000000e00004003200f4ff0700dd
:101a20000000e00001003d008084eb000804e800b5
:101a3000e80f5400f4ff3a002500370000002200b0
:101a4000180060008004eb0021003200a804900020
:101a50000f00370009015100384090000000fb00e2
:101a6000890078005ffa07000000e00007003c00f2
:101a7000280090004004980060049800500c9800e2
:101a80001890a0008084eb0011003700808444008f
:101a900048019000828f5400eeff3900280090002a
:101aa000400498009800780002c020000281600085
:101ab00001003a003800900001e8a3000200320063
:101ac0006004980001003700500c98008004eb007f
:101ad000090078004f04be0000000600e600400048
:101ae0001101780005002800850261006f01610086
:101af0008208780002003200120020001100370036
:101b0000a0019000120020000300e0000d003a0048
:101b1000900190000300e0000a003a001000e0008d
:101b200008003a0036003700640340009608780049
:101b300080017800530b7800900978000408780041
:101b400070015100110278000400e000f6ff32003d
:101b50001300370064024000140378004f33de00a6
:101b6000838141008308730080017800d3037800eb
:101b7000cf3bde001403780006034300068a73009f
:101b80001302780004024200100378004f33de0095
:101b90008609720090017800038841000201e90083
:101ba00091017800ef8f5100eaff360010003700f6
:101bb00080017800530378004f33dd001002d1001c
:101bc000040873006402400094037800cf3bdd00fa
:101bd0001303d10086897300110378004f33dd00b1
:101be0009401d100030a73009108d1000201e800ba
:101bf00091017800ff8f5100edff3e00ef886100fa
:101c0000918872000200780000000600889fbe00e4
:101c10008a1f780000047800c800900068019000d6
:101c20000000eb00828f50003c0039001800780063
:101c30002200290002016000e20f5100070032007b
:101c4000012020000000e0000100350001202400f8
:101c5000008c70000080eb0030003700020026008e
:101c600002006000820f500009003a003800900026
:101c7000808f500006003900080078005cff0700e4
:101c8000800078000080eb000100e00023003a00b3
:101c90001805780000c020000000650018003a0018
:101ca000a80490006002200008004000808f5400cb
:101cb00013003a0000202000ef00070020049800e5
:101cc0000000e00005003a0029049800490498004b
:101cd0008904e80039049800080037000a60a00071
:101ce0000a0c780040049800012020008080400009
:101cf00031049800400c9800500c98000c0007002c
:101d0000280090005004980038009000600498006b
:101d100000002600180c70000000eb004f05780052
:101d20004f04be0000000600a0f320006100370051
:101d3000881f7800089020001804e00003003a0093
:101d4000f9ff070020c0b300004c78004f04780072
:101d500000000600889fbe0000047800080078009c
:101d600023ff0700800478000004200018006000b2
:101d700002003200280090005a0007000000eb002b
:101d800020049800384090000004e0000500350071
:101d90000000fb008af907000000e00001003200ab
:101da0008084eb00181090000000e0000800320072
:101db000cef907000000e000010032008084eb0053
:101dc00018109000470007000000eb001014980066
:101dd0000008200018006000150032000001eb0030
:101de0006000b800838720000202d00063027a00fe
:101df000880f520005003a00000040008180480032
:101e0000008041000008eb00060037006100400040
:101e1000e08048000201e800e80f5000e08f580021
:101e2000f0ff3a00080078002e0007000e0037008f
:101e3000000c780000c0eb003044980060022000e5
:101e400008004000200498004004980050049800c6
:101e5000400c980060049800500c980070049800a2
:101e600076004400000c9800090078004f04be0082
:101e700000000600881f78000004eb006140b800f5
:101e8000e2ff2f00f3ff2f0091020700628820007d
:101e9000620078000000e00001003200adff0700a2
:101ea0000804e800e80f5400f4ff3a004f047800fb
:101eb00000000600010020000100e00008003200e0
:101ec000010080000100e000050032008100e9000f
:101ed000010088008100d0000200800000b178007d
:101ee000000006000000e0002f003200c001780072
:101ef000e38f51002c0036000308a3002a003a00ab
:101f0000e14780000100e00002003200810f500034
:101f10000400310011009800e047880016003700e7
:101f200082007800110190000200e00002003200ff
:101f3000800f5100faff39001102780084824000be
:101f4000850f500018003900808f520003003a00be
:101f50008308420001007800070037000200e0001b
:101f60000300320083014000830f51000e0039004e
:101f70001200980090009800900090000100e0008e
:101f80000900320010014000828f500006003a0024
:101f9000a28f20000009eb00100178001108410019
:101fa000910090001100980000000600889fbe007c
:101fb00000047800d14780000100e00002003200f8
:101fc000010078000d003700e1478000c08f20003d
:101fd00004003700910f5400250036000180e8000e
:101fe000910090000100e000faff3a001000370075
:101ff000920f54001e0036000280e80010017800a5
:102000000200e000faff3a0011017800e147800089
:10201000c08f200004003700910f540014003600d8
:102020000180e80091009000828f5000faff3a0092
:1020300019488000888f540001003100880478001e
:1020400009007800360007000000e00004003a00b4
:10205000888f5400050032008904d100f5ff370055
:10206000091878009fff0700d2ff37000000eb003f
:102070004f04be0000000600881f78006304400083
:102080000800a1008000eb00800f54002100360002
:10209000e30f540001003e004800200008007800d3
:1020a000c2ff07008000eb000000e00019003200d2
:1020b000900078009101780064815100880f5100f0
:1020c000030031001101900002087800070037007a
:1020d00008814000020878009101900013019800e7
:1020e00010017800110914008808780010017800a8
:1020f0000000eb000200e0000400320092019000ba
:102100000300e000010032000280e800d0478800b0
:102110008180e800010078004f047800000006008c
:10212000800078000000eb000100e00005003400b2
:1021300001007800f6f80700e10f400001003a00c6
:102140000000eb000000060000c0da0000000600fe
:1021500000c0da000000060000c0da00000006003f
:102160003400f8000203be00820270008502720093
:1021700002f0a60000f0a6008100e800a10188009e
:102180001500b20008003200105978000402e9007e
:102190000d00320061004000fbff39003420ec00ec
:1021a00000002800f8ff3700101978000482e900c9
:1021b0000500320062004000fbff39003420ec00d3
:1021c00000002800f8ff37003400f9000601be00c7
:1021d000000006000300e00007003200a5018000b7
:1021e000a101880010427800a50188000402fb00cc
:1021f000820f5200110032008301e900a501800026
:10220000a101880010427800a50188000404e000c4
:1022100008003200000278001000b00000026a00de
:102220004260af0000f0a0000482d2000180b00044
:10223000e8ff370000002000010020000000060039
:102240008f1fd100260207008f87e9000000e00001
:1022500000000600809feb00210207008f87e90045
:102260000000e000000006002800fa00889fbe0081
:102270008a9fbe008c9fbe0003866b008f00070004
:102280006400e100440032006408e1004a003200ca
:102290006100e100460032006108e10049003200bf
:1022a000ec0647006000b8003d02be003d03be00e2
:1022b000f48657006011b8003d04be003d05be0025
:1022c0007d0320000b0037000000a0008d06e90010
:1022d000130032000402420085824a0006034b00cc
:1022e00087834b00000040008180480002014900c4
:1022f000838149000802520089825a000a035b0068
:102300008b835b00f0ff3b000802420089824a0099
:102310000a034b008b834b008d06e900edff3a006a
:102320008482720086827200f707b2008782720090
:1023300001003200150020001e0490003e0b9000aa
:1023400006035400e63fb0000368a3000700320014
:102350000000a7000500a0008301d1000281d30086
:102360008180d3000080d3000603e8008301d10000
:102370000281d3008180d3000080d3000002eb00f3
:102380000482d2002100070003f0a1000cf0a70096
:1023900003f0a0005d003700640247006408e1001c
:1023a000570032003400be003401be00f6ff370093
:1023b0006108e100520032006011b8006000b8000e
:1023c000f1ff370003ff270002002000fbff37006a
:1023d000839f68000100e00002003d0060001000e3
:1023e000e08018000300e00002003d0060011100e1
:1023f000e0811900260107004f00e00002003b00c9
:1024000060001000e08018000000060018002000a6
:1024100057002000080453000d003d000600200076
:1024200097fc2f000740e1001e00340084827200f8
:10243000610260008301d1000281d3008180d3005a
:102440000080d3000804e800f8ff3a0047002000ad
:102450006104600005047400040464000d0032008f
:1024600061004000e080480060014900e0814900cf
:1024700003b8a500070032000603e8006538e10054
:1024800004003a008301d1000281d3008180d3008f
:102490000080d300f87f20000830e1000300350001
:1024a000080378006000b8006011b8004433dd0014
:1024b000f300b200830173000000060068044700c7
:1024c0000294be000094be00fc0447008694be0047
:1024d0008494be0009007800ca0107000800780053
:1024e000c801070099007800814f70000b003b0085
:1024f0000800be00a30107004f00b1000300370031
:10250000f3ff2700f2ff2f006110b9004f06be0055
:102510004f05be004f04be000080fa000000060018
:10252000810378004c0007000001be006000b80085
:102530000478a30013003a006220e10015003e0079
:102540000d0039008301d1000281d3008180d300c6
:102550008301d1000281d3008180d3008301d100a7
:102560000281d3008180d3000538b000c42add0089
:10257000f300b2008381720007f0a70003f0a0000f
:1025800000000600f3ff2700f2ff2f006110b900e2
:10259000fbff370003ff2700f7ff37001400fa00a6
:1025a000889fbe008a9fbe008c9fbe000004be00b4
:1025b0000205be00680047000a90be000890be00f9
:1025c000900107000070a7000bf0a100304320002d
:1025d0009e02900080825200b0fe2f000028e10091
:1025e00011003d00b0fc2f000028e1001500340070
:1025f0001e0990008e0890007e0090000501b0003a
:102600000201d1008180d3000080d3008502e80060
:10261000fbff3a000b00e000bcff3b006000100035
:10262000e0801800b9ff3700f0ff2f00f1ff27000e
:102630000b00e000b5ff3b00010028000000200077
:10264000b2ff37006000b800b0ff37004f89de00ee
:102650008201780092013700c70ade00f107b2005c
:10266000f50fb20008003200e1cf42000200320054
:102670000170a00024000500810f700001003200ed
:102680000408050044000500810f700002003a00b4
:10269000140005008502e9000000400081c04800e8
:1026a000fcff3b000170a0002400050000000000ba
:1026b0002800fa00889fbe008a9fbe008c9fbe0043
:1026c00003866b007dff07000028a30064003a002a
:1026d0000128a30067003a000008a30062003a0046
:1026e0000108a30065003a001e009000be0890009b
:1026f00081064000ed3fb100f4805700ee019000ec
:10270000111ab8008e099000311bb8009e09900084
:10271000311cb800511db800f48557004600070071
:10272000fe0190003a0007008b85e8003e0007009c
:102730008e09900040000700ee0190003400070071
:102740008b85e800380007008e09900040000700e4
:102750009e0990001b18b800890440000a854800b3
:10276000fe019000340007008b85e8003800070068
:10277000ee019000300007008e0990001b18b80091
:10278000890440000a8548000a98a30008003a001e
:102790000402420085824a0006034b0087834b00f7
:1027a00008044c0089844c000a054d008d06e900a0
:1027b00084827200850273004c3add00850272004b
:1027c0000100320015002000443ade001400b2007f
:1027d0004538de00cb45dd000b007000c540de0053
:1027e000cb4ddd008b8070004549de00cb55dd0010
:1027f0000b017100c551de000d03780003ff0700d7
:1028000003f0a1000cf0a70003f0a0003fff370089
:102810001b18b8008502400006834800e0834b0087
:1028200060044c00070037001b18b8000603400086
:1028300087834800faff37001b18b8008703400061
:1028400008844800e0844c0060054d00000006004c
:102850001b18b8000804400089844800faff3700bc
:102860000108a30026ff3a005800be005801be0030
:10287000e3ff37000008a30021ff3a0009047800b5
:10288000f9ff37000000000007f0a2001600370033
:102890006022b800060220000000d0008180d20033
:1028a0000482d2008582d2000000a0000202520001
:1028b00083825a00030031000202420083824a00f0
:1028c0000000a1000603e900f3ff3a000000060043
:1028d000020ab900001bb9000200b80081004200e2
:1028e00081004300000006002800fa00889fbe0017
:1028f0008a9fbe008c9fbe0007067800878669000d
:102900000c003b00030478008704780008f0a10065
:1029100009f0a100840f5000858f5800860f5900e0
:10292000890f5c00030033000cf0a20001003a00a4
:102930000cf0a100e1fe07006400e1005f0032003e
:10294000780147006408e100610032006c01470033
:10295000748557003200be001201be003a04be006a
:102960001a05be001e039000be0a900085035300a6
:1029700006003d000004fd008104fd000205fd008d
:102980008305fd008703ea00050378000df8a30026
:102990000400320060041400e0841c0060051d0087
:1029a000e0851d006022b8007d0320000d38e100a5
:1029b0008006eb000b0039004433dd00f300b20069
:1029c0008301730039003700848272000d027800a1
:1029d000e10664008b85d1000a85d3008984d30089
:1029e0000884d3008703e900f7ff3b00080040009c
:1029f000898048000a0149008b81490004003b009e
:102a000060001000e080180060011900e0811900ea
:102a10000358a300090032008d8272008482720084
:102a2000610260008301d1000281d3008180d30064
:102a30000080d3000603e8001b0037000348a30012
:102a400017003a000600e000170034000603e90012
:102a50000d00a300000048008180480002014900e9
:102a6000838149000348a3000f003a000600e000fc
:102a7000090034000603e90000004000818048009e
:102a8000020149008381490001003a000003eb0084
:102a90000348a300f5ff32006022b80002003700af
:102aa000848272006182660058fe070003f0a10074
:102ab0000cf0a70003f0a00094fe3700640147006b
:102ac0006408e10002003a000df8a3008cfe3a0011
:102ad0003200be001201be008cfe37000000000074
:102ae000889fbe008a9fbe008c9fbe000404be006b
:102af0000605be00809fbe00829fbe002f0007001b
:102b0000040678000800be000a01be002b00070082
:102b1000840678004f03be004f02be008d4f760042
:102b20007fb0970013003300f0ff2f008b8f6b00f6
:102b300006003b000d0666000c00a7000a003700e7
:102b400007f0a600100020000a003700880f52008e
:102b5000898f5a008a0f5b008b8f5b00030039005e
:102b60001000200001003e000000200007f0a70038
:102b70000000ea004f06be004f05be004f04be0035
:102b800000000600e48240001078a3000700320035
:102b9000640240001178a3003400be001401be009e
:102ba000040032000330a700000006003500be001c
:102bb0001501be000330a0000000060005ff27003d
:102bc00005826100070032000428e10001003200a4
:102bd000240005000600070001003a00440005003b
:102be0000408050002000700f9ff3a001400050080
:102bf0006f8261008102700085027100850272009f
:102c000000000600800078005002be005003be00a5
:102c10004439de00f700b200f37f200003016100b9
:102c2000090032000218e10016003a008501720026
:102c300083017300838173000008200015003a00af
:102c400040002000130037008501720083017300eb
:102c50008381730005003a0004a8be0006a8be00e8
:102c6000100020000b0037000201e90004024200be
:102c700085824a0006034b0087834b000748a30068
:102c8000f9ff32000740a00004a8be0006a8be005d
:102c900020002000800098009200980000000600ac
:102ca000881f7800030478000300e00007003d005f
:102cb00060001000e080180060011900e081190038
:102cc00002003b0001f02d00030037000400070064
:102cd00008f0a70003f0a0004f04780000000600f1
:102ce000889fbe000082700004027100048271009f
:102cf0002400320036432000c50020008383cf002b
:102d00000a0039000541b1008283cf000700390075
:102d10000541b1008183cf00040039000541b100b5
:102d20008083cf00010039000541b10085c3530005
:102d30006022b800120032000a003b008482720058
:102d4000610260008301d1000281d3008180d30041
:102d50000080d3000603e8008743e800f7ff3a004d
:102d60000700370000004000818048000201490050
:102d7000838149000603e9008743e900f9ff3a002f
:0c2d8000a2fd07004f04be00000006008a
:020000040000fa
:102d8c0045760000656c0000796e0000205900004b
:102d9c00616e000063680000616c000069710000e6
:102dac00756900006e200000476f00006d65000023
:102dbc007a2e0000200a000000560000616c000012
:102dcc006f720000202500002e320000660000000b
:020000040000fa
:102ddc000000fa000080eb003016880000ff2f0086
:102dec009016880000ff2f00b01688000080fa00b3
:102dfc00000006000000fa001d010700200820005a
:102e0c0040010700c00820003e0107000080fa00c6
:102e1c00000006000000fa001221ef000a21ef006a
:102e2c000012200070088800000320009008880021
:102e3c000080fa00000006000000fa00a1e2a900e0
:102e4c00a1a2a90001158000f0cf2f000080600026
:102e5c000015880001158000f0f12f000080600043
:102e6c000060a00000158800a042a8001115800089
:102e7c00f0ff210000806000101588001115800003
:102e8c0030fc2f0080806000c00220000100700028
:102e9c0010158800a222a900a342a800a202a90032
:102eac00a2e2a90021158000f00f2e0080806000a6
:102ebc0000f0200001007000201588002115800012
:102ecc0000fc2f00008060000020a000201588006e
:102edc00a4e2a9000080eb0040158800a8c2a9005c
:102eec00aa22ef00aac2a800a1e2a8000080fa0062
:102efc00000006000200fa0081e0a8008560a9002d
:102f0c008d60a800c1048000f0ff280000806000e4
:102f1c0000e0a000c004880091028000010f78003e
:102f2c00ff3ffc0011028000f0f12f008080600058
:102f3c000006200001007000100288009e0078003e
:102f4c00910288000080fa00000006000c00fa00d4
:102f5c00889fbe000f0478000f0078008004780072
:102f6c0080022000100798001e009000800078005e
:102f7c008100e900210798000000e8000000e8004b
:102f8c000000d100800040000f00780081874700ce
:102f9c000000e8000000d10000004000300798005d
:102fac001e009000800078008100e9004107980025
:102fbc000000e8000000e8000000d10080004000a4
:102fcc000f007800818747000000e8000000d10066
:102fdc0000004000500798003e009000d2012000f5
:102fec00616c290069f507005e019000000020006b
:102ffc0081082400809fbe00306e2900801f78005d
:10300c00020078007cf50700e68757000040eb00d3
:10301c00004f780008003700800a2000b900070034
:10302c001e80fb00be009000614078000000fb0099
:10303c001e4fe800b30007001e80fb00be0090008e
:10304c00614078000004e000f3ff3a000040eb0020
:10305c00004f780008003700800a2000a900070004
:10306c001e80fb00de009000614078000000fb0039
:10307c001e4fe800a30007001e80fb00de0090003e
:10308c00614078000004e000f3ff3a008907780003
:10309c00880778004f04be000080fa00000006008c
:020000040000fa
:1030ac00e00800001a00000002000000686a6c00d2
:1030bc00747a4c00000001000002000004000800bb
:1030cc0000100000000020002b2d23003000000019
:1030dc008808000058000000020000006e616e00bd
:1030ec00004e41004e0069006e660000494e4600dd
:1030fc000000000000000000002440000000000060
:10310c000000000059400000000000000088c300cf
:10311c004000000000008400d79741000080e000d0
:10312c003779c300414317006e05b500b5b893005d
:10313c0046f5f9003fe903004f384d00321d3000d1
:10314c00f9487700825a3c00bf737f00dd4f1500b1
:10315c0075000000fe0800000200000002000000e4
:10316c003000000000080000880000000200000091
:10317c000100000000260800270826000826080089
:10318c0026082600081608000000000000000000b9
:10319c000000000000000000000000000000000023
:1031ac00000000000002080001014e00084f08005a
:1031bc004e084e00084e08004e083e000800000065
:1031cc0000000000000000000000000000000000f3
:1031dc0000000000000000000000020008020200d5
:1031ec0076087700087608007608760008760800de
:1031fc006608000000000000000000000000000055
:10320c0000000000000000000000000000000000b2
:10321c000008280008500800000000000000000012
:10322c000000000000000000000900000200000087
:10323c000000000002090000020000000200000073
:10324c0004000000fa080000040000000000000068
:10325c000409000002000000020000000100000050
:10326c000609000002000000000000000000000041
:020000040000fa
:10327c000000fa00e922a800e522a900c003200002
:10328c004011880000002800301188000080fa00ee
:10329c00000006000400fa002047980000c2b300aa
:1032ac00004f78000700370090cdb30015000700e1
:1032bc002e409000130007001e4078001e4fe900be
:1032cc00100007001e4078000004e000f6ff3a00f2
:1032dc000080fa00000006000200fa00004f78009f
:1032ec001147980080cdb300060007001e407800ff
:1032fc00040007001e409000020007000080fa0046
:10330c00000006000400fa0020479800e922a800fb
:10331c00e922a90051118000010f78002e40900085
:10332c000080fb005011880000000000301180006c
:10333c00610060000000e000fcff32000080fa0039
:10334c00000006000400fa00100798000040eb0093
:10335c00004f78000f0037001e80fb00000040007b
:10336c009e00900000804000100078000040780023
:10337c000080fb004300de00104798001e407800e0
:10338c00c4ff07009e4090001e407800d2ff07004b
:10339c001e4fe80090c7b3009e40780080cf5000cd
:1033ac00edff36000080fa00000006000000fa0075
:1033bc0087fe07008ffe0700e4fe0700ffff3700c3
:020000040000fa
:0200000401f009
:04000000f5ff000008
:020000040000fa
:0200000401f009
:04000400ff7f00007a
:020000040000fa
:0200000401f009
:040008007fff000076
:020000040000fa
:0200000401f009
:04001400ffff0000ea
:020000040000fa
:0200000401f009
:04001800ffff0000e6
:00000001FF
