:020000040000fa
:080000000001040000000000f3
:020000040000fa
:040008006e02000084
:020000040000fa
:04000c006e02000080
:020000040000fa
:040010006e0200007c
:020000040000fa
:040014006e02000078
:020000040000fa
:040018006e02000074
:020000040000fa
:04001c006e02000070
:020000040000fa
:040020006e0200006c
:020000040000fa
:040024006e02000068
:020000040000fa
:040028006e02000064
:020000040000fa
:04002c006e02000060
:020000040000fa
:040030006e0200005c
:020000040000fa
:04003400c8010000ff
:020000040000fa
:040038006e02000054
:020000040000fa
:04003c006e02000050
:020000040000fa
:040040006e0200004c
:020000040000fa
:040044006e02000048
:020000040000fa
:040048006e02000044
:020000040000fa
:04004c006e02000040
:020000040000fa
:040050006e0200003c
:020000040000fa
:040054006e02000038
:020000040000fa
:040058006e02000034
:020000040000fa
:04005c006e02000030
:020000040000fa
:040060006e0200002c
:020000040000fa
:040064006e02000028
:020000040000fa
:040068002202000070
:020000040000fa
:04006c006e02000020
:020000040000fa
:040070006e0200001c
:020000040000fa
:040074006e02000018
:020000040000fa
:040078006e02000014
:020000040000fa
:04007c006e02000010
:020000040000fa
:040080006e0200000c
:020000040000fa
:040084006e02000008
:020000040000fa
:040088006e02000004
:020000040000fa
:04008c006e02000000
:020000040000fa
:040090006e020000fc
:020000040000fa
:040094006e020000f8
:020000040000fa
:040098006e020000f4
:020000040000fa
:04009c006e020000f0
:020000040000fa
:0400a0006e020000ec
:020000040000fa
:0400a4006e020000e8
:020000040000fa
:0400a8006e020000e4
:020000040000fa
:0400ac006e020000e0
:020000040000fa
:0400b0006e020000dc
:020000040000fa
:0400b4006e020000d8
:020000040000fa
:0400b8006e020000d4
:020000040000fa
:0400bc004a020000f4
:020000040000fa
:0400c0006e020000cc
:020000040000fa
:0400c4006e020000c8
:020000040000fa
:0400c8006e020000c4
:020000040000fa
:0400cc006e020000c0
:020000040000fa
:0400d0006e020000bc
:020000040000fa
:0400d4006e020000b8
:020000040000fa
:0400d8006e020000b4
:020000040000fa
:040108006e02000083
:020000040000fa
:04010c006e0200007f
:020000040000fa
:040110006e0200007b
:020000040000fa
:040114006e02000077
:020000040000fa
:040118006e02000073
:020000040000fa
:04011c006e0200006f
:020000040000fa
:040120006e0200006b
:020000040000fa
:040124006e02000067
:020000040000fa
:040128006e02000063
:020000040000fa
:04012c006e0200005f
:020000040000fa
:040130006e0200005b
:020000040000fa
:04013400c8010000fe
:020000040000fa
:040138006e02000053
:020000040000fa
:04013c006e0200004f
:020000040000fa
:040140006e0200004b
:020000040000fa
:040144006e02000047
:020000040000fa
:040148006e02000043
:020000040000fa
:04014c006e0200003f
:020000040000fa
:040150006e0200003b
:020000040000fa
:040154006e02000037
:020000040000fa
:040158006e02000033
:020000040000fa
:04015c006e0200002f
:020000040000fa
:040160006e0200002b
:020000040000fa
:040164006e02000027
:020000040000fa
:04016800220200006f
:020000040000fa
:04016c006e0200001f
:020000040000fa
:040170006e0200001b
:020000040000fa
:040174006e02000017
:020000040000fa
:040178006e02000013
:020000040000fa
:04017c006e0200000f
:020000040000fa
:040180006e0200000b
:020000040000fa
:040184006e02000007
:020000040000fa
:040188006e02000003
:020000040000fa
:04018c006e020000ff
:020000040000fa
:040190006e020000fb
:020000040000fa
:040194006e020000f7
:020000040000fa
:040198006e020000f3
:020000040000fa
:04019c006e020000ef
:020000040000fa
:0401a0006e020000eb
:020000040000fa
:0401a4006e020000e7
:020000040000fa
:0401a8006e020000e3
:020000040000fa
:0401ac006e020000df
:020000040000fa
:0401b0006e020000db
:020000040000fa
:0401b4006e020000d7
:020000040000fa
:0401b8006e020000d3
:020000040000fa
:0401bc004a020000f3
:020000040000fa
:0401c0006e020000cb
:020000040000fa
:0401c4006e020000c7
:020000040000fa
:0401c8006e020000c3
:020000040000fa
:0401cc006e020000bf
:020000040000fa
:0401d0006e020000bb
:020000040000fa
:0401d4006e020000b7
:020000040000fa
:0401d8006e020000b3
:020000040000fa
:10020000af8020000e7f22000e0188000000000059
:10021000000020000000e000020032000001200089
:100220002002880014000700c70007000000e0005b
:1002300003003a0060602000010020000200370047
:100240000000200001002000810f7000010032003a
:1002500014000700000020000000e000020032004f
:100260000000020000000000e8050200000000009d
:100270000040da000000fe004440a9000000200019
:100280000000e0000300320000002000a001880010
:100290004440a800000006008a1f78008b1f7800e9
:1002a0000000060091018800800478000000eb0047
:1002b0001a003700e284440032a0b4009905ba0065
:1002c000e284440032a0b4009906ba00e2844400fb
:1002d00032a0b4000006eb00476fde00fd07b2005d
:1002e000636ce10003003a00ebff07000000eb0045
:1002f0000a003700606ce10004003a00005deb008a
:100300008b05e900fdff3e00040037006168e10055
:10031000010032000086eb000b00070019c7ba008d
:100320001905ba000e04e00003003a000a00e000dc
:10033000e0ff3a0000000600fe07b2009e018800c0
:100340008a047800f5ff3700395dba008b05e900b3
:100350000c003200295dba008b05e900080032006c
:100360000c00e00003003a00e284440032a0b40034
:10037000f5ff370019ddba008b05e900faff3a00f6
:100380008904e800e184440032a0b40000000600c3
:100390003600f800809fbe00829fbe00849fbe0092
:1003a000869fbe003400f80000002000a0018800f5
:1003b0000000fa008460a900204080000000e800ee
:1003c0002040880020408000e80f500001003a00e3
:1003d0000428ef0030408000e10f50000700320099
:1003e000e10f500003003900e20f50000600320018
:1003f000080037008c01070008003700204080000b
:100400002e0107000500370020408000470107004b
:100410000200370084010700000000004040800017
:10042000dc0107000080fa003400f9004f03be0031
:100430004f02be004f01be004f00be003600f90063
:1004400000400600801f78003400f8000000200003
:10045000a00188000000fa008600a900304080005a
:100460000000e8003040880030408000e30f50007a
:1004700004003a000628ef000428ef000080eb009b
:10048000b01688000080fa003400f9004f007800b0
:1004900000400600801f78003400f80000002000b3
:1004a000a00188000000fa0088a0a9004040800058
:1004b0000000e8004040880040408000e50f500008
:1004c00002003a0010002000404088000080fa003e
:1004d0003400f9004f007800004006000040da00c8
:1004e0000000fe008c60a90005e1a9008460a9005d
:1004f000000006008460a900e7006000f2ff280009
:10050000cc08dd00a30480000301610068006000e6
:100510000281700071ff2f00a20488006204800035
:100520008280600081007000610488000000060085
:100530000021ef0011088800200888000000060054
:100540000008880000000600000005000001be0051
:100550001b0007000470a70003f0a10003f8a3002c
:1005600013003a006509b10010003200090035009f
:100570006928e100020035000100280000000500a4
:1005800000004000818048008502e900fcff3a003d
:1005900000000600f88f4200050035008100d10000
:1005a0000080d3008502e800fcff3a00000006004e
:1005b0008000eb00000005006011b8004900370022
:1005c000c70ade00f107b200f50fb20008003200e2
:1005d000e1cf4200020032000170a00024000500bb
:1005e000810f70000100320004080500440005007e
:1005f000810f700002003a00140005008502e90036
:100600000000400081c04800fcff3b000170a000da
:1006100024000500889fbe008a9fbe008c1f7800c2
:10062000850007008c00330003866c006450e100f5
:10063000240032006420e100270032006150e10014
:10064000220032006120e100210032008b8542004f
:10065000eb07b1000134b800003ab80008044200ca
:1006600089844a00013ab8000030b8008880400010
:1006700009014a0004003300000040008180480066
:10068000020149008b05e900c909dd008301700002
:100690000100320013002000c814de004814dd0001
:1006a0004709de001200b200c808de0008847000ae
:1006b0003b00070001f0a1000cf0a70001f0a00032
:1006c0006e0037006120e100700032000801be00ba
:1006d0000200be00f7ff37006150e100fcff3a0066
:1006e0006a003700889fbe008a9fbe0000827000ab
:1006f0000402710004827100260032000004be0072
:100700000200be006011b8006b09200095022000b5
:100710000182cf000a0039000541b1000082cf00fc
:10072000070039000541b1000982cf0004003900fb
:100730000541b1000882cf00010039000541b10038
:1007400005425200120032000a003b008281710013
:10075000610164008100d1000080d3008984d3004e
:100760000884d3008b05e8000442e800f7ff3a0054
:10077000070037000804440089844c00000048004a
:10078000818048008b05e9000442e900f9ff3a0046
:10079000030007004f05be004f04be000000060026
:1007a00081002000618055000b003d000b002000ff
:1007b00061fe2f000100e1001d0034008281710004
:1007c000610164008904d1000884d3000000e800be
:1007d000faff3a007100200061006400030070001d
:1007e000020060000900320061044400e0844c0013
:1007f0000988a500050032008b05e8006808e100c3
:1008000002003a008904d1000884d300f20f2000ce
:100810000258e10005003d00c75ddd00f907b200a8
:100820008980750008007800000006000bf827009a
:100830008b007800000005000004be0060ff070088
:100840000003be000405be000200be005cff0700fe
:10085000844f7500000006000200be006450e100f5
:10086000050036006420e100020036000968a3009c
:1008700001003a000800be000160a0004f067800a9
:100880004f05be004f04be0000000600f0ff2f0021
:08089000f1ff2700f9ff37001a
:020000040000fa
:100898000000fa000080eb00b016880000ff2f006f
:1008a800901688000080eb00001688000080fa008f
:1008b800000006000200fa00000f78001e00780011
:1008c800e10f50000a003200e10f50000500390026
:1008d800e20f500009003200e30f50000a00320016
:1008e8000c003700e0ff2f00b01688000b0037001f
:1008f800d0ff2f00b016880008003700b0ff2f0087
:10090800b01688000500370070ff2f00b016880069
:10091800020037000080eb00b01688000080fa0063
:10092800000006000200fa00000f78001e007800a0
:10093800e30f500017003200e30f500005003e009f
:10094800e10f50000d003200e10f50000e003e0094
:1009580007003700e50f500014003200e50f500083
:100968000f003900e60f5000130032001500370061
:10097800e0ff2f00b016880014003700c0ff2f00da
:10098800b01688001100370080ff2f00b0168800cd
:100998000e00370000ff2f00b01688000b0037004c
:1009a80080ff2f00b016880008003700c0ff2f0016
:1009b800b016880005003700e0ff2f00b016880049
:1009c800020037000080eb00b01688000080fa00b3
:1009d800000006000200fa00000f78001e007800f0
:1009e8000000e00003003200e10f50000500320073
:1009f80009003700a016800000004000b0168800eb
:100a080005003700a01680000000d1000030a000cb
:100a1800b0168800000000000080fa000000060000
:100a28000000fa00b01680006100600000f0a70026
:100a38000000ea000000e9004f00de0000407800f6
:100a48000080fb0061006000b11680000100a10079
:100a580001007000b0168800b016800062006000c7
:100a680000f0a7000000ea000000e9004f00de00e7
:100a7800004078000080fb0061006000000040003a
:100a8800b11680000110a10001007000b0168800a6
:100a9800b01680006400600000f0a7000000ea00c3
:100aa8000000e9004f00de00004078000080fb00f5
:100ab800610060004200dd00b11680000120a10045
:100ac80001007000b0168800b01680006800600051
:100ad80000f0a7000000ea000000e9004f00de0077
:100ae800004078000080fb00610060004300dd00ea
:100af800b11680000130a10001007000b016880016
:100b08000080fa00000006000200fa0081e0a80058
:100b1800e104800080ff2f00008060003000b300f7
:100b2800e00488008600a9008e00a8003105800036
:100b3800f0f82f00008060000050a0003005880009
:100b480088a0a90090a0a80091028000010f780059
:100b5800ff3ffc0011028000f0f12f0000806000d0
:100b68000050a000100288009e00780091028800c2
:100b78000080fa00000006000000fa00a0832300ad
:100b8800100888000080fa00000006000600fa003d
:100b98002007980000802e0001662400008fbe0008
:100ba8002e0090008000eb0081fe07001e01be00b1
:100bb80096fe070063fe0700000078001008880012
:100bc8000080fa00000006000000fa0030ff07006d
:100bd80042fe07000000eb0057fe070090ff2f00c1
:100be80042fe0700100880008000780090fb2f006c
:100bf8004dfe0700c4ff070040408000e3ff0700e8
:040c0800ffff3700b3
:020000040000fa
:100c0c0000080000080000000000000008080000b8
:100c1c0002000000020000000100000000000000c3
:020000040000fa
:0200000401f009
:04000000f5ff000008
:020000040000fa
:0200000401f009
:04000400ff7f00007a
:020000040000fa
:0200000401f009
:040008007fff000076
:020000040000fa
:0200000401f009
:04001400ffff0000ea
:020000040000fa
:0200000401f009
:04001800ffff0000e6
:00000001FF
