:020000040000fa
:080000000001040000000000f3
:020000040000fa
:04000800c80100002b
:020000040000fa
:04000c00c801000027
:020000040000fa
:04001000c801000023
:020000040000fa
:04001400c80100001f
:020000040000fa
:04001800c80100001b
:020000040000fa
:04001c00c801000017
:020000040000fa
:04002000c801000013
:020000040000fa
:04002400c80100000f
:020000040000fa
:04002800c80100000b
:020000040000fa
:04002c00c801000007
:020000040000fa
:04003000c801000003
:020000040000fa
:04003400c8010000ff
:020000040000fa
:04003800c8010000fb
:020000040000fa
:04003c00c8010000f7
:020000040000fa
:04004000c8010000f3
:020000040000fa
:04004400c8010000ef
:020000040000fa
:04004800c8010000eb
:020000040000fa
:04004c00c8010000e7
:020000040000fa
:04005000c8010000e3
:020000040000fa
:04005400c8010000df
:020000040000fa
:04005800c8010000db
:020000040000fa
:04005c00c8010000d7
:020000040000fa
:04006000c8010000d3
:020000040000fa
:04006400c8010000cf
:020000040000fa
:04006800c8010000cb
:020000040000fa
:04006c00c8010000c7
:020000040000fa
:04007000c8010000c3
:020000040000fa
:04007400c8010000bf
:020000040000fa
:04007800c8010000bb
:020000040000fa
:04007c00c8010000b7
:020000040000fa
:04008000c8010000b3
:020000040000fa
:04008400c8010000af
:020000040000fa
:04008800c8010000ab
:020000040000fa
:04008c00c8010000a7
:020000040000fa
:04009000c8010000a3
:020000040000fa
:04009400c80100009f
:020000040000fa
:04009800c80100009b
:020000040000fa
:04009c00c801000097
:020000040000fa
:0400a000c801000093
:020000040000fa
:0400a400c80100008f
:020000040000fa
:0400a800c80100008b
:020000040000fa
:0400ac00c801000087
:020000040000fa
:0400b000c801000083
:020000040000fa
:0400b400c80100007f
:020000040000fa
:0400b800c80100007b
:020000040000fa
:0400bc00c801000077
:020000040000fa
:0400c000c801000073
:020000040000fa
:0400c400c80100006f
:020000040000fa
:0400c800c80100006b
:020000040000fa
:0400cc00c801000067
:020000040000fa
:0400d000c801000063
:020000040000fa
:0400d400c80100005f
:020000040000fa
:0400d800c80100005b
:020000040000fa
:04010800c80100002a
:020000040000fa
:04010c00c801000026
:020000040000fa
:04011000c801000022
:020000040000fa
:04011400c80100001e
:020000040000fa
:04011800c80100001a
:020000040000fa
:04011c00c801000016
:020000040000fa
:04012000c801000012
:020000040000fa
:04012400c80100000e
:020000040000fa
:04012800c80100000a
:020000040000fa
:04012c00c801000006
:020000040000fa
:04013000c801000002
:020000040000fa
:04013400c8010000fe
:020000040000fa
:04013800c8010000fa
:020000040000fa
:04013c00c8010000f6
:020000040000fa
:04014000c8010000f2
:020000040000fa
:04014400c8010000ee
:020000040000fa
:04014800c8010000ea
:020000040000fa
:04014c00c8010000e6
:020000040000fa
:04015000c8010000e2
:020000040000fa
:04015400c8010000de
:020000040000fa
:04015800c8010000da
:020000040000fa
:04015c00c8010000d6
:020000040000fa
:04016000c8010000d2
:020000040000fa
:04016400c8010000ce
:020000040000fa
:04016800c8010000ca
:020000040000fa
:04016c00c8010000c6
:020000040000fa
:04017000c8010000c2
:020000040000fa
:04017400c8010000be
:020000040000fa
:04017800c8010000ba
:020000040000fa
:04017c00c8010000b6
:020000040000fa
:04018000c8010000b2
:020000040000fa
:04018400c8010000ae
:020000040000fa
:04018800c8010000aa
:020000040000fa
:04018c00c8010000a6
:020000040000fa
:04019000c8010000a2
:020000040000fa
:04019400c80100009e
:020000040000fa
:04019800c80100009a
:020000040000fa
:04019c00c801000096
:020000040000fa
:0401a000c801000092
:020000040000fa
:0401a400c80100008e
:020000040000fa
:0401a800c80100008a
:020000040000fa
:0401ac00c801000086
:020000040000fa
:0401b000c801000082
:020000040000fa
:0401b400c80100007e
:020000040000fa
:0401b800c80100007a
:020000040000fa
:0401bc00c801000076
:020000040000fa
:0401c000c801000072
:020000040000fa
:0401c400c80100006e
:020000040000fa
:0401c800c80100006a
:020000040000fa
:0401cc00c801000066
:020000040000fa
:0401d000c801000062
:020000040000fa
:0401d400c80100005e
:020000040000fa
:0401d800c80100005a
:020000040000fa
:10020000af8021000e6f22000e0188000000000068
:10021000000020000000e000020032000001200089
:100220002002880014000700a00007000000e00082
:1002300003003a0000902000010020000200370077
:100240000000200001002000810f7000010032003a
:1002500014000700000020000000e000020032004f
:10026000000002000000000058080200000000002a
:100270000040da000000fe004440a9000000200019
:100280000000e0000300320000002000a001880010
:100290004440a800000006008a1f78008b1f7800e9
:1002a0000000060091018800800478000000eb0047
:1002b0001a003700e284440032a0b4009905ba0065
:1002c000e284440032a0b4009906ba00e2844400fb
:1002d00032a0b4000006eb00476fde00fd07b2005d
:1002e000636ce10003003a00ebff07000000eb0045
:1002f0000a003700606ce10004003a00005deb008a
:100300008b05e900fdff3e00040037006168e10055
:10031000010032000086eb000b00070019c7ba008d
:100320001905ba000e04e00003003a000a00e000dc
:10033000e0ff3a0000000600fe07b2009e018800c0
:100340008a047800f5ff3700395dba008b05e900b3
:100350000c003200295dba008b05e900080032006c
:100360000c00e00003003a00e284440032a0b40034
:10037000f5ff370019ddba008b05e900faff3a00f6
:100380008904e800e184440032a0b40000000600c3
:100390000040da000000fe00800090000101e9004a
:1003a000c000900000002000028009008018780042
:1003b00000000600889fbe008a9fbe008c9fbe0082
:1003c0008e1f78004400f800080f200028028800e3
:1003d0003400f8004600f8004800f8004a00f80031
:1003e0004c00f8004e00f8008a0a2c003a028800ff
:1003f00023049000580288001304900048028800eb
:10040000530590007a028800430590006a02880034
:10041000811f78000f0778003305900007f02f0048
:100420000a38e10004003200270280004700b300d0
:1004300027028800aa01880063059000030290004b
:10044000630252000000e90000800800070000007d
:10045000320d7800000000004618c3000480090037
:100460004618c4004218c4001201c4003100cd0077
:10047000ea0198008e0778004f0078004e00f900de
:100480004c00f9004a00f9004800f9004600f90064
:100490003400f9004400f9004f0778004f06be0011
:1004a0004f05be004f04be0000000600000005001e
:1004b00003f0a200889fbe008a9fbe008c1f7800b8
:1004c000f9000700000133006450e1004f003200e2
:1004d0006420e1005200320003826c0007003b0000
:1004e0000905d0000306d000820f54000c065d0001
:1004f000020039000200320089017800030678000a
:100500008582550004003d000003fd008103fd00cd
:100510008502ea008b854200840f720002003b00d6
:1005200060001000e08018006011b8000005eb00ca
:100530007a28e1000a00390006007800c75ddd0076
:10054000f707b200878075002d00370082817100a7
:100550000a017800610560008180d1000080d3002d
:100560008502e900f9ff3b0006044000878448004b
:1005700002003b0060041400e0841c000988a30012
:10058000070032008a81710082817100610164007c
:100590008904d1000884d3008b05e80017003700d8
:1005a0000978a30013003a000b00e00013003400a8
:1005b0008b05e9000804440089844c000a44740057
:1005c0000978a3000d003a000b00e000070034009a
:1005d0008b05e9000804440089844c0001003a00be
:1005e0000b0020000978a300f7ff32000001eb00a8
:1005f00002003700828171000a0178006f00070055
:100600000cf0a70001f0a000b80037006420e10062
:1006100002003a00838f6c00b80033000801be006e
:100620000200be00b1003700889fbe008a9fbe0056
:100630008c1f78009c000700a300330003866c0029
:100640006450e1002e0032006420e10033003200eb
:100650006150e1002f0032006120e10031003200e2
:1006600085855500eb07b000090020000804200034
:10067000050037000804440089844c000a0031005a
:100680000603430087834b000001530081815b0018
:10069000f8ff33000203be000800a0000804440075
:1006a00089844c00f6ff3900c639dd0083017300f0
:1006b00001003200130020008904d1000884d30017
:1006c0000998a300050032000800a7000300a0005d
:1006d0008904d1000884d3008b05e8008904d10087
:1006e0000884d3000001eb000281d2003300070030
:1006f00001f0a1000cf0a70001f0a0007b00370082
:100700006420e1007d0032000801be000200be004e
:10071000f7ff37006120e100780032006000b80088
:10072000f3ff37000000200001f82700f0ff37003a
:100730000001be00470007000470a70003f0a100fd
:100740006509b100160032000d0035006828e1008f
:1007500006003500f0ff2f00f1ff27000300e00046
:1007600013003b00010028000000050000004000cd
:10077000818048008502e900fcff3a00080037004c
:10078000f88f420002003c008000eb0000000500f2
:100790008100d1000080d3008502e800fcff3a0010
:1007a0000300e00002003b0060001000e080180041
:1007b000000006006011b8008900370081002000a9
:1007c000618055000b003d000b00200061fe2f00f2
:1007d0000100e1001d0034008281710061016400ac
:1007e0008904d1000884d3000000e800faff3a0031
:1007f00071002000610064000300700002006000ce
:100800000900320061044400e0844c000988a5001e
:10081000050032008b05e8006808e10002003a009c
:100820008904d1000884d300f20f20000258e100af
:1008300005003d00c75ddd00f907b2008980750045
:1008400008007800000006000bf827008b007800f5
:1008500000000500c70ade00f107b200f50fb20084
:1008600008003200e1cf4200020032000170a00017
:1008700024000500810f700001003200040805000b
:1008800044000500810f700002003a0014000500ca
:100890008502e9000000400081c04800fcff3b00e9
:1008a0000170a000240005000004be00e9ff07005d
:1008b0000003be000405be000200be00e5ff070005
:1008c000844f7500000006000200be006450e10085
:1008d000050036006420e100020036000968a3002c
:1008e00001003a000800be000160a0004f06780039
:1008f0004f05be004f04be0000000600f0ff2f00b1
:10090000f1ff2700f9ff3700889fbe008a9fbe00d5
:100910008c1f7800e4ff0700ebff330003866c00b8
:100920006450e100240032006420e100270032001e
:100930006150e100220032006120e100210032001c
:100940008b854200eb07b1000134b800003ab800d3
:100950000804420089844a00013ab8000030b80017
:100960008880400009014a00040033000000400074
:1009700081804800020149008b05e900c909dd00ba
:10098000830170000100320013002000c814de0053
:100990004814dd004709de001200b200c808de007e
:1009a0000884700085ff070001f0a1000cf0a7008b
:1009b00001f0a000cdff37006120e100cfff320041
:1009c0000801be000200be00f7ff37006150e100e1
:1009d000fcff3a00c9ff37000001eb002f00370091
:1009e000889fbe008a9fbe000082700004027100d2
:1009f00004827100260032000004be000200be0026
:100a00006011b8006b092000950220000182cf0020
:100a10000a0039000541b1000082cf00070039000b
:100a20000541b1000982cf00040039000541b10041
:100a30000882cf00010039000541b1000542520093
:100a4000120032000a003b008281710061016400e3
:100a50008100d1000080d3008984d3000884d300b2
:100a60008b05e8000442e800f7ff3a000700370072
:100a70000804440089844c0000004800818048003c
:100a80008b05e9000442e900f9ff3a004bff07003b
:100a90004f05be004f04be0000000600889fbe0048
:100aa0008a9fbe008c9fbe00820578000004be00b5
:100ab00068ff07000800be006420e100070039005d
:100ac00002003a00f1ff2700f0ff2f000160a000b4
:100ad0001202200042408800550037006120e100ea
:100ae00003003a000b00a70001f823005000370074
:100af00001f0a100020021009364240050000700cf
:100b00000800be0004003500b2fd2000930c240054
:100b1000500007000004be000005eb000b00a6001b
:100b20004f0dde0001f0a1000004be0032982f003e
:100b300023ea230074ff07000001eb0003f0230009
:100b40000b00a70003f823005afe0700f8fe070079
:100b50000000a7000a00a2003b0007000b00e00015
:100b6000030032000200200003f0230050fe0700c3
:100b700001f0a2000006be00020020009304240041
:100b800061ff07000801be004afe0700809fbe000b
:100b90000c00be0022a22a00d3a723005aff0700a0
:100ba0004f01be0043fe07000004be0001f0a1009b
:100bb0000200200003982300210007000800be0067
:100bc000190035000001be004fff07000006be00ff
:100bd000b2c52900e36223004bff070022222b004d
:100be000f3942b0033fe07000c01be0046ff070004
:100bf000e273280083c023002efe07000c01be0014
:100c000041ff070042aa2a00a3e22b0029fe0700a9
:100c10000c01be003cff07000801be003aff0700c0
:100c20000801be0023fe07000a00a70001f0a20091
:100c30004f06be004f05be004f04be000000060078
:100c400014002000540037004f89de008201780034
:100c50006c0037000400200000003700889fbe00b1
:100c60008a9fbe008c1f78004f26dd000eff070014
:100c700015ff33006120e100430032006250e100c3
:100c800041003e003e0039006420e1003c0032009b
:100c9000058255000f003b000402e80038003a00ce
:100ca000800f5300818f5b00350034000800be00c8
:100cb00003f0a10001f0a60003f0a0000cf0a700d3
:100cc000fcfd070009ff37000603430087834b0044
:100cd0000c4646000005530081855b00020033008e
:100ce0000a03be000c00a0000402e900f6ff3b006e
:100cf000850578000602430087824b0004003a0015
:100d00006000b80009f0a70001f0a000f7fe37006e
:100d10000002520081825a000704e0000400330000
:100d20000603430087834b008b05e900faff370079
:100d3000090578000604be000203be006011b80079
:100d40009efe0700e00f5200e08f5a0007003500ba
:100d500002003c000c08a300040032000601be00a3
:100d600003f0a0000cf0a700d2fd07000a85680080
:100d700001f0a1000af0a70001f0a000dbfe37009f
:100d80000800be00d9fe3700100220000cf0a600bb
:100d900040408800d9fe3700889fbe008a9fbe0071
:100da000841f7800c0fe07004f0078001100330058
:100db000f0ff2f00838f6c0006003b0004056500e8
:100dc0000a00a7000800370009f0a6001000200064
:100dd00008003700820f5400838f5c000300390045
:100de0001000200001003e000000200009f0a700d4
:100df0000000ea004f05be004f04be000000e00006
:100e000000000600881f7800030478000300e0005b
:100e100007003d0060001000e0801800600119002c
:100e2000e081190002003b0001f02d0003003700b3
:100e3000ebfe070008f0a70001f0a0004f047800c7
:040e400000000600a8
:020000040000fa
:100e44000000fa000080eb00b016880000ff2f00bd
:100e5400901688000080eb00001688000080fa00dd
:100e6400000006000200fa00889fbe000000eb00ac
:100e7400000f78000071220000408800f034200048
:100e840010408800f016200020408800b0072000a1
:100e9400304088000000eb00000f7800720037003b
:100ea400104080008000eb0041fe0700b2fd2000ee
:100eb400930c240093fe07000004be001e0078007b
:100ec4008000eb003afe07000001be000800be00ef
:100ed4008cfe07000004be00004080008000eb0090
:100ee40033fe07000001be000800be00cdfd070070
:100ef400b8fe07001e017800c211dd00a2c0200068
:100f0400028141000089be00204080008000eb0087
:100f140027fe0700b2fd2000930c240079fe070091
:100f24000004be001e0078008000eb0020fe0700d5
:100f34000001be000800be0072fe07000004be00ef
:100f4400004080008000eb0019fe07000001be0095
:100f54000800be00b3fd07009efe07001e017800d6
:100f6400c211dd00a2002100028141000089be00ff
:100f7400304080008000eb000dfe0700b2fd200031
:100f8400930c24005ffe07000004be001e007800de
:100f94008000eb0006fe07000001be000800be0052
:100fa40058fe07000004be00004080008000eb00f3
:100fb400fffd07000001be000800be0099fd070008
:100fc40084fe07001e017800c211dd00a24021004a
:100fd400028141000089be001e007800c200dd00cd
:100fe400a0c02000008040001002be001e00780057
:100ff400c200dd00a0002100008040001000be00ff
:101004000001be000400be0029fd07000002be006e
:101014001e007800c200dd00a040210000804000d6
:101024001000be000001be000400be0020fd070049
:1010340002002000030424007afd070002002000bf
:10104400037024002ffe0700b8fd0700800078001d
:101054001e00780000014000a08020000000410034
:10106400010878001e0fe800f00f20009e007800b1
:10107400808f50008aff36004f04be000080fa00c3
:10108400000006000000fa0000782200c1fc0700fe
:1010940003782200a2802000a1a0200000102000dc
:0c10a400c3fc07000080fa0000000600fa
:020000040000fa
:1010b0000000fa0063ff07006bff0700f2ff070064
:0410c000ffff3700f7
:020000040000fa
:10110000e4ff0000e6ff0000ecff0000faff000033
:101110000f0000002a0000004500000059000000f8
:10112000590000003d00000000000000a8ff000082
:1011300045ff0000f2fe0000cffe0000f6fe0000ba
:1011400078ff0000500000005d0100006702000011
:1011500024030000460300008a020000ce000000c5
:1011600016fe000097fa0000b1f60000e1f2000060
:10117000acef000089ed0000e46c000089ed000098
:10118000acef0000e1f20000b1f6000097fa0000b9
:1011900016fe0000ce0000008a0200004603000098
:1011a00024030000670200005d0100005000000001
:1011b00078ff0000f6fe0000cffe0000f2fe000007
:1011c00045ff0000a8ff0000000000003d000000f7
:1011d0005900000059000000450000002a000000ee
:1011e0000f000000faff0000ecff0000e6ff000027
:1011f000e4ff00000000000000000000000000000c
:020000040000fa
:101200000a080000001000000000000000080000b4
:101210000800000000000000802700000e00000011
:10122000020000003d00800088f9880000000000f6
:101230002779270000270000002700008000000019
:10124000000000000808000002000000000000008c
:04125000000000009a
:020000040000fa
:0200000401f009
:04000000f5ff000008
:020000040000fa
:0200000401f009
:04000400ff7f00007a
:020000040000fa
:0200000401f009
:040008007fff000076
:020000040000fa
:0200000401f009
:04001400ffff0000ea
:020000040000fa
:0200000401f009
:04001800ffff0000e6
:00000001FF
